{
  "address": "0x46eAe6203F3CC1B68cED53ec8E216DbB121E7c4F",
  "abi": [
    {
      "inputs": [
        {
          "internalType": "int256",
          "name": "_value",
          "type": "int256"
        }
      ],
      "stateMutability": "nonpayable",
      "type": "constructor"
    },
    {
      "anonymous": false,
      "inputs": [
        {
          "indexed": true,
          "internalType": "address",
          "name": "previousOwner",
          "type": "address"
        },
        {
          "indexed": true,
          "internalType": "address",
          "name": "newOwner",
          "type": "address"
        }
      ],
      "name": "OwnershipTransferred",
      "type": "event"
    },
    {
      "anonymous": false,
      "inputs": [
        {
          "indexed": false,
          "internalType": "int256",
          "name": "",
          "type": "int256"
        }
      ],
      "name": "PriceUpdated",
      "type": "event"
    },
    {
      "inputs": [],
      "name": "latestAnswer",
      "outputs": [
        {
          "internalType": "int256",
          "name": "",
          "type": "int256"
        }
      ],
      "stateMutability": "view",
      "type": "function"
    },
    {
      "inputs": [],
      "name": "owner",
      "outputs": [
        {
          "internalType": "address",
          "name": "",
          "type": "address"
        }
      ],
      "stateMutability": "view",
      "type": "function"
    },
    {
      "inputs": [],
      "name": "renounceOwnership",
      "outputs": [],
      "stateMutability": "nonpayable",
      "type": "function"
    },
    {
      "inputs": [
        {
          "internalType": "int256",
          "name": "_value",
          "type": "int256"
        }
      ],
      "name": "set",
      "outputs": [],
      "stateMutability": "nonpayable",
      "type": "function"
    },
    {
      "inputs": [
        {
          "internalType": "address",
          "name": "newOwner",
          "type": "address"
        }
      ],
      "name": "transferOwnership",
      "outputs": [],
      "stateMutability": "nonpayable",
      "type": "function"
    }
  ],
  "transactionHash": "0xaa8f7d65bc5821eac3e716d1f7e0fb80744e4c941aaca3531aeaf67d3a91018f",
  "args": [
    "163400"
  ],
  "numDeployments": 1,
  "solcInputHash": "a46c1923bc24b750ed943402f5de958f",
  "bytecode": "0x608060405234801561001057600080fd5b5060405161068638038061068683398101604081905261002f91610090565b61003833610040565b6001556100a9565b600080546001600160a01b038381166001600160a01b0319831681178455604051919092169283917f8be0079c531659141344cd1fd0a4f28419497f9722a3daafe3b4186f6b6457e09190a35050565b6000602082840312156100a257600080fd5b5051919050565b6105ce806100b86000396000f3fe608060405234801561001057600080fd5b50600436106100675760003560e01c80638da5cb5b116100505780638da5cb5b1461008c578063e5c19b2d146100b4578063f2fde38b146100c757600080fd5b806350d25bcd1461006c578063715018a614610082575b600080fd5b6001546040519081526020015b60405180910390f35b61008a6100da565b005b60005460405173ffffffffffffffffffffffffffffffffffffffff9091168152602001610079565b61008a6100c2366004610405565b6100ee565b61008a6100d536600461041e565b610164565b6100e2610201565b6100ec6000610268565b565b6100f6610201565b808060001261014c5760405162461bcd60e51b815260206004820152600d60248201527f496e76616c69642076616c75650000000000000000000000000000000000000060448201526064015b60405180910390fd5b610155826102dd565b915061016082610358565b5050565b61016c610201565b73ffffffffffffffffffffffffffffffffffffffff81166101f55760405162461bcd60e51b815260206004820152602660248201527f4f776e61626c653a206e6577206f776e657220697320746865207a65726f206160448201527f64647265737300000000000000000000000000000000000000000000000000006064820152608401610143565b6101fe81610268565b50565b60005473ffffffffffffffffffffffffffffffffffffffff1633146100ec5760405162461bcd60e51b815260206004820181905260248201527f4f776e61626c653a2063616c6c6572206973206e6f7420746865206f776e65726044820152606401610143565b6000805473ffffffffffffffffffffffffffffffffffffffff8381167fffffffffffffffffffffffff0000000000000000000000000000000000000000831681178455604051919092169283917f8be0079c531659141344cd1fd0a4f28419497f9722a3daafe3b4186f6b6457e09190a35050565b600080606460056001546102f1919061048a565b6102fb91906104ba565b905060006001548461030d919061052d565b9050610318816103e5565b821215610350578060001261033a5781600154610335919061052d565b610348565b816001546103489190610554565b949350505050565b509192915050565b80806000126103a95760405162461bcd60e51b815260206004820152600d60248201527f496e76616c69642076616c7565000000000000000000000000000000000000006044820152606401610143565b60018290556040518281527ffa6bd982fa4e58a45ea44e1fe84ab8e9de93c3310ec81db62565ac50139a6ca39060200160405180910390a15050565b6000816000126103fd576103f88261057c565b6103ff565b815b92915050565b60006020828403121561041757600080fd5b5035919050565b60006020828403121561043057600080fd5b813573ffffffffffffffffffffffffffffffffffffffff8116811461045457600080fd5b9392505050565b7f4e487b7100000000000000000000000000000000000000000000000000000000600052601160045260246000fd5b80820260008212600160ff1b841416156104a6576104a661045b565b81810583148215176103ff576103ff61045b565b6000826104f0577f4e487b7100000000000000000000000000000000000000000000000000000000600052601260045260246000fd5b7fffffffffffffffffffffffffffffffffffffffffffffffffffffffffffffffff8314600160ff1b831416156105285761052861045b565b500590565b818103600083128015838313168383128216171561054d5761054d61045b565b5092915050565b80820182811260008312801582168215821617156105745761057461045b565b505092915050565b6000600160ff1b82036105915761059161045b565b506000039056fea2646970667358221220dad69e43b58813b760812a374389bace1f8ecca33ca33bf5677e590b4ab656c064736f6c63430008110033",
  "devdoc": {
    "kind": "dev",
    "methods": {
      "owner()": {
        "details": "Returns the address of the current owner."
      },
      "renounceOwnership()": {
        "details": "Leaves the contract without owner. It will not be possible to call `onlyOwner` functions anymore. Can only be called by the current owner. NOTE: Renouncing ownership will leave the contract without an owner, thereby removing any functionality that is only available to the owner."
      },
      "transferOwnership(address)": {
        "details": "Transfers ownership of the contract to a new account (`newOwner`). Can only be called by the current owner."
      }
    },
    "version": 1
  },
  "userdoc": {
    "kind": "user",
    "methods": {},
    "version": 1
  },
  "storageLayout": {
    "storage": [
      {
        "astId": 545,
        "contract": "contracts/ethregistrar/LAMBPriceOracle.sol:LAMBPriceOracle",
        "label": "_owner",
        "offset": 0,
        "slot": "0",
        "type": "t_address"
      },
      {
        "astId": 10975,
        "contract": "contracts/ethregistrar/LAMBPriceOracle.sol:LAMBPriceOracle",
        "label": "value",
        "offset": 0,
        "slot": "1",
        "type": "t_int256"
      }
    ],
    "types": {
      "t_address": {
        "encoding": "inplace",
        "label": "address",
        "numberOfBytes": "20"
      },
      "t_int256": {
        "encoding": "inplace",
        "label": "int256",
        "numberOfBytes": "32"
      }
    }
  }
}